{
  "_format": "hh-sol-artifact-1",
  "contractName": "FundManager",
  "sourceName": "contracts/Fund.sol",
  "abi": [
    {
      "inputs": [],
      "stateMutability": "nonpayable",
      "type": "constructor"
    },
    {
      "anonymous": false,
      "inputs": [
        {
          "indexed": false,
          "internalType": "uint256",
          "name": "fid",
          "type": "uint256"
        },
        {
          "indexed": false,
          "internalType": "address",
          "name": "owner",
          "type": "address"
        },
        {
          "indexed": false,
          "internalType": "uint256",
          "name": "created",
          "type": "uint256"
        }
      ],
      "name": "AddFuncSuccess",
      "type": "event"
    },
    {
      "anonymous": false,
      "inputs": [
        {
          "indexed": false,
          "internalType": "uint256",
          "name": "fid",
          "type": "uint256"
        },
        {
          "indexed": false,
          "internalType": "address",
          "name": "sender",
          "type": "address"
        },
        {
          "indexed": false,
          "internalType": "uint256",
          "name": "value",
          "type": "uint256"
        },
        {
          "indexed": false,
          "internalType": "uint256",
          "name": "timestamp",
          "type": "uint256"
        }
      ],
      "name": "DonateSuccess",
      "type": "event"
    },
    {
      "anonymous": false,
      "inputs": [
        {
          "indexed": false,
          "internalType": "uint256",
          "name": "fid",
          "type": "uint256"
        },
        {
          "indexed": false,
          "internalType": "uint256",
          "name": "phase",
          "type": "uint256"
        },
        {
          "indexed": false,
          "internalType": "uint256",
          "name": "timestamp",
          "type": "uint256"
        }
      ],
      "name": "RefundSuccess",
      "type": "event"
    },
    {
      "anonymous": false,
      "inputs": [
        {
          "indexed": false,
          "internalType": "uint256",
          "name": "fid",
          "type": "uint256"
        },
        {
          "indexed": false,
          "internalType": "uint256",
          "name": "phase",
          "type": "uint256"
        },
        {
          "indexed": false,
          "internalType": "address",
          "name": "owner",
          "type": "address"
        },
        {
          "indexed": false,
          "internalType": "uint256",
          "name": "",
          "type": "uint256"
        },
        {
          "indexed": false,
          "internalType": "uint256",
          "name": "timestamp",
          "type": "uint256"
        }
      ],
      "name": "SubmitPOCSuccess",
      "type": "event"
    },
    {
      "anonymous": false,
      "inputs": [
        {
          "indexed": false,
          "internalType": "uint256",
          "name": "fid",
          "type": "uint256"
        },
        {
          "indexed": false,
          "internalType": "uint256",
          "name": "phase",
          "type": "uint256"
        },
        {
          "indexed": false,
          "internalType": "address",
          "name": "owner",
          "type": "address"
        },
        {
          "indexed": false,
          "internalType": "uint256",
          "name": "timestamp",
          "type": "uint256"
        }
      ],
      "name": "WithdrawSucess",
      "type": "event"
    },
    {
      "inputs": [
        {
          "internalType": "uint256",
          "name": "fid",
          "type": "uint256"
        },
        {
          "internalType": "uint256[]",
          "name": "end_of_phase_",
          "type": "uint256[]"
        },
        {
          "internalType": "uint256[]",
          "name": "phase_goal_",
          "type": "uint256[]"
        }
      ],
      "name": "AddFund",
      "outputs": [],
      "stateMutability": "nonpayable",
      "type": "function"
    },
    {
      "inputs": [
        {
          "internalType": "uint256",
          "name": "fid",
          "type": "uint256"
        }
      ],
      "name": "Donate",
      "outputs": [],
      "stateMutability": "payable",
      "type": "function"
    },
    {
      "inputs": [
        {
          "internalType": "uint256",
          "name": "fid",
          "type": "uint256"
        },
        {
          "internalType": "uint256[]",
          "name": "new_phase_dl",
          "type": "uint256[]"
        }
      ],
      "name": "ExtendDay",
      "outputs": [],
      "stateMutability": "nonpayable",
      "type": "function"
    },
    {
      "inputs": [
        {
          "internalType": "uint256",
          "name": "fid",
          "type": "uint256"
        }
      ],
      "name": "GetFund",
      "outputs": [
        {
          "components": [
            {
              "internalType": "uint256",
              "name": "fID",
              "type": "uint256"
            },
            {
              "internalType": "address payable",
              "name": "owner",
              "type": "address"
            },
            {
              "internalType": "uint256",
              "name": "date_created",
              "type": "uint256"
            },
            {
              "internalType": "uint256[]",
              "name": "end_of_phase",
              "type": "uint256[]"
            },
            {
              "internalType": "uint256[]",
              "name": "phase_goal",
              "type": "uint256[]"
            },
            {
              "internalType": "uint256",
              "name": "no_phase",
              "type": "uint256"
            },
            {
              "internalType": "enum FundManager.Status",
              "name": "status",
              "type": "uint8"
            },
            {
              "internalType": "uint256[]",
              "name": "current_value",
              "type": "uint256[]"
            },
            {
              "internalType": "uint256",
              "name": "current_phase",
              "type": "uint256"
            },
            {
              "internalType": "bool",
              "name": "extended",
              "type": "bool"
            },
            {
              "internalType": "uint256",
              "name": "deadline_poc",
              "type": "uint256"
            }
          ],
          "internalType": "struct FundManager.fund_t",
          "name": "",
          "type": "tuple"
        }
      ],
      "stateMutability": "view",
      "type": "function"
    },
    {
      "inputs": [
        {
          "internalType": "uint256",
          "name": "fid",
          "type": "uint256"
        }
      ],
      "name": "GetPlan",
      "outputs": [
        {
          "internalType": "uint256[]",
          "name": "",
          "type": "uint256[]"
        }
      ],
      "stateMutability": "view",
      "type": "function"
    },
    {
      "inputs": [
        {
          "internalType": "uint256",
          "name": "fid",
          "type": "uint256"
        }
      ],
      "name": "GetState",
      "outputs": [
        {
          "internalType": "enum FundManager.Status",
          "name": "",
          "type": "uint8"
        }
      ],
      "stateMutability": "view",
      "type": "function"
    },
    {
      "inputs": [
        {
          "internalType": "uint256",
          "name": "fid",
          "type": "uint256"
        }
      ],
      "name": "GetSubmitter",
      "outputs": [
        {
          "components": [
            {
              "internalType": "address payable",
              "name": "donor",
              "type": "address"
            },
            {
              "internalType": "uint256",
              "name": "amount",
              "type": "uint256"
            },
            {
              "internalType": "uint256",
              "name": "phase",
              "type": "uint256"
            }
          ],
          "internalType": "struct FundManager.donorEntry[]",
          "name": "",
          "type": "tuple[]"
        }
      ],
      "stateMutability": "view",
      "type": "function"
    },
    {
      "inputs": [
        {
          "internalType": "uint256",
          "name": "fid",
          "type": "uint256"
        },
        {
          "internalType": "uint256",
          "name": "phase",
          "type": "uint256"
        }
      ],
      "name": "Refund",
      "outputs": [],
      "stateMutability": "nonpayable",
      "type": "function"
    },
    {
      "inputs": [
        {
          "internalType": "uint256",
          "name": "fid",
          "type": "uint256"
        },
        {
          "internalType": "uint256",
          "name": "phase",
          "type": "uint256"
        }
      ],
      "name": "Withdraw",
      "outputs": [],
      "stateMutability": "nonpayable",
      "type": "function"
    },
    {
      "inputs": [
        {
          "internalType": "uint256",
          "name": "",
          "type": "uint256"
        },
        {
          "internalType": "uint256",
          "name": "",
          "type": "uint256"
        }
      ],
      "name": "donors",
      "outputs": [
        {
          "internalType": "address payable",
          "name": "donor",
          "type": "address"
        },
        {
          "internalType": "uint256",
          "name": "amount",
          "type": "uint256"
        },
        {
          "internalType": "uint256",
          "name": "phase",
          "type": "uint256"
        }
      ],
      "stateMutability": "view",
      "type": "function"
    },
    {
      "inputs": [
        {
          "internalType": "uint256",
          "name": "",
          "type": "uint256"
        }
      ],
      "name": "fundExist",
      "outputs": [
        {
          "internalType": "bool",
          "name": "",
          "type": "bool"
        }
      ],
      "stateMutability": "view",
      "type": "function"
    },
    {
      "inputs": [
        {
          "internalType": "address",
          "name": "",
          "type": "address"
        },
        {
          "internalType": "uint256",
          "name": "",
          "type": "uint256"
        }
      ],
      "name": "fundOf",
      "outputs": [
        {
          "internalType": "uint256",
          "name": "fID",
          "type": "uint256"
        },
        {
          "internalType": "address payable",
          "name": "owner",
          "type": "address"
        },
        {
          "internalType": "uint256",
          "name": "date_created",
          "type": "uint256"
        },
        {
          "internalType": "uint256",
          "name": "no_phase",
          "type": "uint256"
        },
        {
          "internalType": "enum FundManager.Status",
          "name": "status",
          "type": "uint8"
        },
        {
          "internalType": "uint256",
          "name": "current_phase",
          "type": "uint256"
        },
        {
          "internalType": "bool",
          "name": "extended",
          "type": "bool"
        },
        {
          "internalType": "uint256",
          "name": "deadline_poc",
          "type": "uint256"
        }
      ],
      "stateMutability": "view",
      "type": "function"
    },
    {
      "inputs": [
        {
          "internalType": "uint256",
          "name": "",
          "type": "uint256"
        }
      ],
      "name": "funds",
      "outputs": [
        {
          "internalType": "uint256",
          "name": "fID",
          "type": "uint256"
        },
        {
          "internalType": "address payable",
          "name": "owner",
          "type": "address"
        },
        {
          "internalType": "uint256",
          "name": "date_created",
          "type": "uint256"
        },
        {
          "internalType": "uint256",
          "name": "no_phase",
          "type": "uint256"
        },
        {
          "internalType": "enum FundManager.Status",
          "name": "status",
          "type": "uint8"
        },
        {
          "internalType": "uint256",
          "name": "current_phase",
          "type": "uint256"
        },
        {
          "internalType": "bool",
          "name": "extended",
          "type": "bool"
        },
        {
          "internalType": "uint256",
          "name": "deadline_poc",
          "type": "uint256"
        }
      ],
      "stateMutability": "view",
      "type": "function"
    },
    {
      "inputs": [],
      "name": "no_funds",
      "outputs": [
        {
          "internalType": "uint256",
          "name": "",
          "type": "uint256"
        }
      ],
      "stateMutability": "view",
      "type": "function"
    }
  ],
  "bytecode": "0x6080604052348015600f57600080fd5b50336000806101000a81548173ffffffffffffffffffffffffffffffffffffffff021916908373ffffffffffffffffffffffffffffffffffffffff160217905550612f3d8061005f6000396000f3fe6080604052600436106100dd5760003560e01c806383bd62dd1161007f5780639c90809f116100595780639c90809f146102ca578063b05618a314610307578063c06d820a1461034b578063fa3d832214610388576100dd565b806383bd62dd146102255780638d934895146102645780639ae3fa9b146102a1576100dd565b806358f91c43116100bb57806358f91c43146101645780635eee80321461018d5780636fe6cdd9146101b65780637b8e8895146101e1576100dd565b806333ac2627146100e2578063537ad044146100fe57806356ca301a1461013b575b600080fd5b6100fc60048036038101906100f79190611e3f565b6103c5565b005b34801561010a57600080fd5b5061012560048036038101906101209190611e3f565b6106e7565b6040516101329190611fad565b60405180910390f35b34801561014757600080fd5b50610162600480360381019061015d9190611fcf565b610823565b005b34801561017057600080fd5b5061018b60048036038101906101869190612168565b610af5565b005b34801561019957600080fd5b506101b460048036038101906101af9190611fcf565b610f4f565b005b3480156101c257600080fd5b506101cb611156565b6040516101d89190612202565b60405180910390f35b3480156101ed57600080fd5b5061020860048036038101906102039190611e3f565b61115c565b60405161021c9897969594939291906122be565b60405180910390f35b34801561023157600080fd5b5061024c60048036038101906102479190611fcf565b6111de565b60405161025b9392919061233c565b60405180910390f35b34801561027057600080fd5b5061028b60048036038101906102869190611e3f565b611245565b6040516102989190612422565b60405180910390f35b3480156102ad57600080fd5b506102c860048036038101906102c39190612444565b611319565b005b3480156102d657600080fd5b506102f160048036038101906102ec9190611e3f565b61148f565b6040516102fe91906124a0565b60405180910390f35b34801561031357600080fd5b5061032e600480360381019061032991906124f9565b6114af565b6040516103429897969594939291906122be565b60405180910390f35b34801561035757600080fd5b50610372600480360381019061036d9190611e3f565b61154e565b60405161037f9190612539565b60405180910390f35b34801561039457600080fd5b506103af60048036038101906103aa9190611e3f565b611580565b6040516103bc91906126de565b60405180910390f35b6103ce81611794565b6005600082815260200190815260200160002060009054906101000a900460ff1661042e576040517f08c379a00000000000000000000000000000000000000000000000000000000081526004016104259061275d565b60405180910390fd5b6104a26040518060400160405280600981526020017f53746174757320256400000000000000000000000000000000000000000000008152506001600084815260200190815260200160002060060160009054906101000a900460ff16600281111561049d5761049c61222c565b5b611b82565b600060028111156104b6576104b561222c565b5b6001600083815260200190815260200160002060060160009054906101000a900460ff1660028111156104ec576104eb61222c565b5b1461052c576040517f08c379a0000000000000000000000000000000000000000000000000000000008152600401610523906127ef565b60405180910390fd5b6000341161056f576040517f08c379a00000000000000000000000000000000000000000000000000000000081526004016105669061285b565b60405180910390fd5b60006001600083815260200190815260200160002090506000816008015490506000349050808360070183815481106105ab576105aa61287b565b5b9060005260206000200160008282546105c491906128d9565b925050819055506105d484611794565b600060405180606001604052803373ffffffffffffffffffffffffffffffffffffffff1681526020013481526020018481525090506003600086815260200190815260200160002081908060018154018082558091505060019003906000526020600020906003020160009091909190915060008201518160000160006101000a81548173ffffffffffffffffffffffffffffffffffffffff021916908373ffffffffffffffffffffffffffffffffffffffff160217905550602082015181600101556040820151816002015550507ff4f3119f6dd28e8baa8f734c7cd074fff3262f33e628f05b5c7784ec90742678853384426040516106d8949392919061291c565b60405180910390a15050505050565b60606005600083815260200190815260200160002060009054906101000a900460ff16610749576040517f08c379a0000000000000000000000000000000000000000000000000000000008152600401610740906129ad565b60405180910390fd5b60036000838152602001908152602001600020805480602002602001604051908101604052809291908181526020016000905b8282101561081857838290600052602060002090600302016040518060600160405290816000820160009054906101000a900473ffffffffffffffffffffffffffffffffffffffff1673ffffffffffffffffffffffffffffffffffffffff1673ffffffffffffffffffffffffffffffffffffffff168152602001600182015481526020016002820154815250508152602001906001019061077c565b505050509050919050565b6005600083815260200190815260200160002060009054906101000a900460ff16610883576040517f08c379a000000000000000000000000000000000000000000000000000000000815260040161087a906129ad565b60405180910390fd5b6000600160008481526020019081526020016000209050818160050154116108e0576040517f08c379a00000000000000000000000000000000000000000000000000000000081526004016108d790612a19565b60405180910390fd5b81816008015411610926576040517f08c379a000000000000000000000000000000000000000000000000000000000815260040161091d90612a85565b60405180910390fd5b6001600281111561093a5761093961222c565b5b8160060160009054906101000a900460ff16600281111561095e5761095d61222c565b5b0361099e576040517f08c379a000000000000000000000000000000000000000000000000000000000815260040161099590612b17565b60405180910390fd5b60008160010160009054906101000a900473ffffffffffffffffffffffffffffffffffffffff1673ffffffffffffffffffffffffffffffffffffffff168260070184815481106109f1576109f061287b565b5b9060005260206000200154604051610a0890612b68565b60006040518083038185875af1925050503d8060008114610a45576040519150601f19603f3d011682016040523d82523d6000602084013e610a4a565b606091505b5050905080610a8e576040517f08c379a0000000000000000000000000000000000000000000000000000000008152600401610a8590612bc9565b60405180910390fd5b7fd5bc9014aca816c894655d2e35c54028e3d172b7e3c245ae635c1969b5e2e20984848460010160009054906101000a900473ffffffffffffffffffffffffffffffffffffffff1642604051610ae79493929190612c48565b60405180910390a150505050565b6000815167ffffffffffffffff811115610b1257610b11612025565b5b604051908082528060200260200182016040528015610b405781602001602082028036833780820191505090505b50905060005b8251811015610b7d576000828281518110610b6457610b6361287b565b5b6020026020010181815250508080600101915050610b46565b5060006040518061016001604052808681526020013373ffffffffffffffffffffffffffffffffffffffff1681526020014281526020018581526020018481526020018451815260200160006002811115610bdb57610bda61222c565b5b8152602001838152602001600081526020016000151581526020016000815250905080600160008781526020019081526020016000206000820151816000015560208201518160010160006101000a81548173ffffffffffffffffffffffffffffffffffffffff021916908373ffffffffffffffffffffffffffffffffffffffff160217905550604082015181600201556060820151816003019080519060200190610c88929190611cfd565b506080820151816004019080519060200190610ca5929190611cfd565b5060a0820151816005015560c08201518160060160006101000a81548160ff02191690836002811115610cdb57610cda61222c565b5b021790555060e0820151816007019080519060200190610cfc929190611cfd565b5061010082015181600801556101208201518160090160006101000a81548160ff02191690831515021790555061014082015181600a015590505060026000815480929190610d4a90612c8d565b919050555060016005600087815260200190815260200160002060006101000a81548160ff021916908315150217905550600460003373ffffffffffffffffffffffffffffffffffffffff1673ffffffffffffffffffffffffffffffffffffffff1681526020019081526020016000208190806001815401808255809150506001900390600052602060002090600b02016000909190919091506000820151816000015560208201518160010160006101000a81548173ffffffffffffffffffffffffffffffffffffffff021916908373ffffffffffffffffffffffffffffffffffffffff160217905550604082015181600201556060820151816003019080519060200190610e5b929190611cfd565b506080820151816004019080519060200190610e78929190611cfd565b5060a0820151816005015560c08201518160060160006101000a81548160ff02191690836002811115610eae57610ead61222c565b5b021790555060e0820151816007019080519060200190610ecf929190611cfd565b5061010082015181600801556101208201518160090160006101000a81548160ff02191690831515021790555061014082015181600a015550507f96bea85e2c54f77a7825c1912613796a6fd0b389b4bf859372ac6667321061ce85826020015142604051610f4093929190612cd5565b60405180910390a15050505050565b6005600083815260200190815260200160002060009054906101000a900460ff16610faf576040517f08c379a0000000000000000000000000000000000000000000000000000000008152600401610fa6906129ad565b60405180910390fd5b60005b6003600084815260200190815260200160002080549050811015611151576000600360008581526020019081526020016000208281548110610ff757610ff661287b565b5b90600052602060002090600302016040518060600160405290816000820160009054906101000a900473ffffffffffffffffffffffffffffffffffffffff1673ffffffffffffffffffffffffffffffffffffffff1673ffffffffffffffffffffffffffffffffffffffff1681526020016001820154815260200160028201548152505090508060400151831461108d5750611144565b6000816000015173ffffffffffffffffffffffffffffffffffffffff1682602001516040516110bb90612b68565b60006040518083038185875af1925050503d80600081146110f8576040519150601f19603f3d011682016040523d82523d6000602084013e6110fd565b606091505b5050905080611141576040517f08c379a000000000000000000000000000000000000000000000000000000000815260040161113890612d58565b60405180910390fd5b50505b8080600101915050610fb2565b505050565b60025481565b60016020528060005260406000206000915090508060000154908060010160009054906101000a900473ffffffffffffffffffffffffffffffffffffffff16908060020154908060050154908060060160009054906101000a900460ff16908060080154908060090160009054906101000a900460ff169080600a0154905088565b600360205281600052604060002081815481106111fa57600080fd5b9060005260206000209060030201600091509150508060000160009054906101000a900473ffffffffffffffffffffffffffffffffffffffff16908060010154908060020154905083565b60606005600083815260200190815260200160002060009054906101000a900460ff166112a7576040517f08c379a000000000000000000000000000000000000000000000000000000000815260040161129e906129ad565b60405180910390fd5b60006001600084815260200190815260200160002090508060030180548060200260200160405190810160405280929190818152602001828054801561130c57602002820191906000526020600020905b8154815260200190600101908083116112f8575b5050505050915050919050565b6005600083815260200190815260200160002060009054906101000a900460ff16611379576040517f08c379a0000000000000000000000000000000000000000000000000000000008152600401611370906129ad565b60405180910390fd5b600060016000848152602001908152602001600020905080600301805490508251146113a457600080fd5b60006001905060005b83518110156113ef5760008482815181106113cb576113ca61287b565b5b602002602001015110156113e257600091506113ef565b80806001019150506113ad565b5080611430576040517f08c379a000000000000000000000000000000000000000000000000000000000815260040161142790612dc4565b60405180910390fd5b60005b83518110156114885783818151811061144f5761144e61287b565b5b602002602001015183600301828154811061146d5761146c61287b565b5b90600052602060002001819055508080600101915050611433565b5050505050565b60056020528060005260406000206000915054906101000a900460ff1681565b600460205281600052604060002081815481106114cb57600080fd5b90600052602060002090600b0201600091509150508060000154908060010160009054906101000a900473ffffffffffffffffffffffffffffffffffffffff16908060020154908060050154908060060160009054906101000a900460ff16908060080154908060090160009054906101000a900460ff169080600a0154905088565b6000806001600084815260200190815260200160002090508060060160009054906101000a900460ff16915050919050565b611588611d4a565b6001600083815260200190815260200160002060405180610160016040529081600082015481526020016001820160009054906101000a900473ffffffffffffffffffffffffffffffffffffffff1673ffffffffffffffffffffffffffffffffffffffff1673ffffffffffffffffffffffffffffffffffffffff168152602001600282015481526020016003820180548060200260200160405190810160405280929190818152602001828054801561166057602002820191906000526020600020905b81548152602001906001019080831161164c575b50505050508152602001600482018054806020026020016040519081016040528092919081815260200182805480156116b857602002820191906000526020600020905b8154815260200190600101908083116116a4575b50505050508152602001600582015481526020016006820160009054906101000a900460ff1660028111156116f0576116ef61222c565b5b60028111156117025761170161222c565b5b81526020016007820180548060200260200160405190810160405280929190818152602001828054801561175557602002820191906000526020600020905b815481526020019060010190808311611741575b50505050508152602001600882015481526020016009820160009054906101000a900460ff16151515158152602001600a820154815250509050919050565b6005600082815260200190815260200160002060009054906101000a900460ff166117f4576040517f08c379a00000000000000000000000000000000000000000000000000000000081526004016117eb9061275d565b60405180910390fd5b6000600160008381526020019081526020016000209050600081600801549050600082600501549050428360030183815481106118345761183361287b565b5b906000526020600020015410801561188b575082600401828154811061185d5761185c61287b565b5b906000526020600020015483600701838154811061187e5761187d61287b565b5b9060005260206000200154105b156118fc5760018360060160006101000a81548160ff021916908360028111156118b8576118b761222c565b5b02179055506118fb6040518060400160405280600b81526020017f7365742053544f50504544000000000000000000000000000000000000000000815250611c1e565b5b5b60018161190a9190612de4565b8210801561195757508260040182815481106119295761192861287b565b5b906000526020600020015483600701838154811061194a5761194961287b565b5b9060005260206000200154115b15611a545760008360040183815481106119745761197361287b565b5b90600052602060002001548460070184815481106119955761199461287b565b5b90600052602060002001546119aa9190612de4565b9050808460070184815481106119c3576119c261287b565b5b9060005260206000200160008282546119dc9190612de4565b9250508190555080846007016001856119f591906128d9565b81548110611a0657611a0561287b565b5b906000526020600020016000828254611a1f91906128d9565b92505081905550836008016000815480929190611a3b90612c8d565b91905055508280611a4b90612c8d565b935050506118fd565b60005b81811015611a6c578080600101915050611a57565b5082600401600182611a7e9190612de4565b81548110611a8f57611a8e61287b565b5b906000526020600020015483600701600183611aab9190612de4565b81548110611abc57611abb61287b565b5b906000526020600020015410158015611b0b575060016002811115611ae457611ae361222c565b5b8360060160009054906101000a900460ff166002811115611b0857611b0761222c565b5b14155b15611b7c5760028360060160006101000a81548160ff02191690836002811115611b3857611b3761222c565b5b0217905550611b7b6040518060400160405280600c81526020017f7365742046494e49534845440000000000000000000000000000000000000000815250611c1e565b5b50505050565b611c1a8282604051602401611b98929190612e86565b6040516020818303038152906040527fb60e72cc000000000000000000000000000000000000000000000000000000007bffffffffffffffffffffffffffffffffffffffffffffffffffffffff19166020820180517bffffffffffffffffffffffffffffffffffffffffffffffffffffffff8381831617835250505050611cb7565b5050565b611cb481604051602401611c329190612eb6565b6040516020818303038152906040527f41304fac000000000000000000000000000000000000000000000000000000007bffffffffffffffffffffffffffffffffffffffffffffffffffffffff19166020820180517bffffffffffffffffffffffffffffffffffffffffffffffffffffffff8381831617835250505050611cb7565b50565b611cce81611cc6611cd1611cf2565b63ffffffff16565b50565b60006a636f6e736f6c652e6c6f679050600080835160208501845afa505050565b611dce819050919050565b828054828255906000526020600020908101928215611d39579160200282015b82811115611d38578251825591602001919060010190611d1d565b5b509050611d469190611dd8565b5090565b60405180610160016040528060008152602001600073ffffffffffffffffffffffffffffffffffffffff1681526020016000815260200160608152602001606081526020016000815260200160006002811115611daa57611da961222c565b5b81526020016060815260200160008152602001600015158152602001600081525090565b611dd6612ed8565b565b5b80821115611df1576000816000905550600101611dd9565b5090565b6000604051905090565b600080fd5b600080fd5b6000819050919050565b611e1c81611e09565b8114611e2757600080fd5b50565b600081359050611e3981611e13565b92915050565b600060208284031215611e5557611e54611dff565b5b6000611e6384828501611e2a565b91505092915050565b600081519050919050565b600082825260208201905092915050565b6000819050602082019050919050565b600073ffffffffffffffffffffffffffffffffffffffff82169050919050565b6000611ec382611e98565b9050919050565b611ed381611eb8565b82525050565b611ee281611e09565b82525050565b606082016000820151611efe6000850182611eca565b506020820151611f116020850182611ed9565b506040820151611f246040850182611ed9565b50505050565b6000611f368383611ee8565b60608301905092915050565b6000602082019050919050565b6000611f5a82611e6c565b611f648185611e77565b9350611f6f83611e88565b8060005b83811015611fa0578151611f878882611f2a565b9750611f9283611f42565b925050600181019050611f73565b5085935050505092915050565b60006020820190508181036000830152611fc78184611f4f565b905092915050565b60008060408385031215611fe657611fe5611dff565b5b6000611ff485828601611e2a565b925050602061200585828601611e2a565b9150509250929050565b600080fd5b6000601f19601f8301169050919050565b7f4e487b7100000000000000000000000000000000000000000000000000000000600052604160045260246000fd5b61205d82612014565b810181811067ffffffffffffffff8211171561207c5761207b612025565b5b80604052505050565b600061208f611df5565b905061209b8282612054565b919050565b600067ffffffffffffffff8211156120bb576120ba612025565b5b602082029050602081019050919050565b600080fd5b60006120e46120df846120a0565b612085565b90508083825260208201905060208402830185811115612107576121066120cc565b5b835b81811015612130578061211c8882611e2a565b845260208401935050602081019050612109565b5050509392505050565b600082601f83011261214f5761214e61200f565b5b813561215f8482602086016120d1565b91505092915050565b60008060006060848603121561218157612180611dff565b5b600061218f86828701611e2a565b935050602084013567ffffffffffffffff8111156121b0576121af611e04565b5b6121bc8682870161213a565b925050604084013567ffffffffffffffff8111156121dd576121dc611e04565b5b6121e98682870161213a565b9150509250925092565b6121fc81611e09565b82525050565b600060208201905061221760008301846121f3565b92915050565b61222681611eb8565b82525050565b7f4e487b7100000000000000000000000000000000000000000000000000000000600052602160045260246000fd5b6003811061226c5761226b61222c565b5b50565b600081905061227d8261225b565b919050565b600061228d8261226f565b9050919050565b61229d81612282565b82525050565b60008115159050919050565b6122b8816122a3565b82525050565b6000610100820190506122d4600083018b6121f3565b6122e1602083018a61221d565b6122ee60408301896121f3565b6122fb60608301886121f3565b6123086080830187612294565b61231560a08301866121f3565b61232260c08301856122af565b61232f60e08301846121f3565b9998505050505050505050565b6000606082019050612351600083018661221d565b61235e60208301856121f3565b61236b60408301846121f3565b949350505050565b600081519050919050565b600082825260208201905092915050565b6000819050602082019050919050565b60006123ab8383611ed9565b60208301905092915050565b6000602082019050919050565b60006123cf82612373565b6123d9818561237e565b93506123e48361238f565b8060005b838110156124155781516123fc888261239f565b9750612407836123b7565b9250506001810190506123e8565b5085935050505092915050565b6000602082019050818103600083015261243c81846123c4565b905092915050565b6000806040838503121561245b5761245a611dff565b5b600061246985828601611e2a565b925050602083013567ffffffffffffffff81111561248a57612489611e04565b5b6124968582860161213a565b9150509250929050565b60006020820190506124b560008301846122af565b92915050565b60006124c682611e98565b9050919050565b6124d6816124bb565b81146124e157600080fd5b50565b6000813590506124f3816124cd565b92915050565b600080604083850312156125105761250f611dff565b5b600061251e858286016124e4565b925050602061252f85828601611e2a565b9150509250929050565b600060208201905061254e6000830184612294565b92915050565b600082825260208201905092915050565b600061257082612373565b61257a8185612554565b93506125858361238f565b8060005b838110156125b657815161259d888261239f565b97506125a8836123b7565b925050600181019050612589565b5085935050505092915050565b6125cc81612282565b82525050565b6125db816122a3565b82525050565b6000610160830160008301516125fa6000860182611ed9565b50602083015161260d6020860182611eca565b5060408301516126206040860182611ed9565b50606083015184820360608601526126388282612565565b915050608083015184820360808601526126528282612565565b91505060a083015161266760a0860182611ed9565b5060c083015161267a60c08601826125c3565b5060e083015184820360e08601526126928282612565565b9150506101008301516126a9610100860182611ed9565b506101208301516126be6101208601826125d2565b506101408301516126d3610140860182611ed9565b508091505092915050565b600060208201905081810360008301526126f881846125e1565b905092915050565b600082825260208201905092915050565b7f46756e64206d7573742062652065786973740000000000000000000000000000600082015250565b6000612747601283612700565b915061275282612711565b602082019050919050565b600060208201905081810360008301526127768161273a565b9050919050565b7f546869732066756e64206973206e6f206c6f6e67657220616363657074696e6760008201527f20646f6e61746500000000000000000000000000000000000000000000000000602082015250565b60006127d9602783612700565b91506127e48261277d565b604082019050919050565b60006020820190508181036000830152612808816127cc565b9050919050565b7f446f6e6174696f6e2076616c7565206d75737420626520706f73697469766500600082015250565b6000612845601f83612700565b91506128508261280f565b602082019050919050565b6000602082019050818103600083015261287481612838565b9050919050565b7f4e487b7100000000000000000000000000000000000000000000000000000000600052603260045260246000fd5b7f4e487b7100000000000000000000000000000000000000000000000000000000600052601160045260246000fd5b60006128e482611e09565b91506128ef83611e09565b9250828201905080821115612907576129066128aa565b5b92915050565b612916816124bb565b82525050565b600060808201905061293160008301876121f3565b61293e602083018661290d565b61294b60408301856121f3565b61295860608301846121f3565b95945050505050565b7f46756e6420646f6573206e6f7420657869737400000000000000000000000000600082015250565b6000612997601383612700565b91506129a282612961565b602082019050919050565b600060208201905081810360008301526129c68161298a565b9050919050565b7f496e76616c696420706861736500000000000000000000000000000000000000600082015250565b6000612a03600d83612700565b9150612a0e826129cd565b602082019050919050565b60006020820190508181036000830152612a32816129f6565b9050919050565b7f546865207068617365206973206e6f742066696e697368656400000000000000600082015250565b6000612a6f601983612700565b9150612a7a82612a39565b602082019050919050565b60006020820190508181036000830152612a9e81612a62565b9050919050565b7f5468652066756e642069732073746f7070656420616e64206e6f206c6f6e676560008201527f7220776f726b696e670000000000000000000000000000000000000000000000602082015250565b6000612b01602983612700565b9150612b0c82612aa5565b604082019050919050565b60006020820190508181036000830152612b3081612af4565b9050919050565b600081905092915050565b50565b6000612b52600083612b37565b9150612b5d82612b42565b600082019050919050565b6000612b7382612b45565b9150819050919050565b7f5472616e73666572206661696c65640000000000000000000000000000000000600082015250565b6000612bb3600f83612700565b9150612bbe82612b7d565b602082019050919050565b60006020820190508181036000830152612be281612ba6565b9050919050565b6000819050919050565b6000612c0e612c09612c0484611e98565b612be9565b611e98565b9050919050565b6000612c2082612bf3565b9050919050565b6000612c3282612c15565b9050919050565b612c4281612c27565b82525050565b6000608082019050612c5d60008301876121f3565b612c6a60208301866121f3565b612c776040830185612c39565b612c8460608301846121f3565b95945050505050565b6000612c9882611e09565b91507fffffffffffffffffffffffffffffffffffffffffffffffffffffffffffffffff8203612cca57612cc96128aa565b5b600182019050919050565b6000606082019050612cea60008301866121f3565b612cf76020830185612c39565b612d0460408301846121f3565b949350505050565b7f526566756e642073756363657373000000000000000000000000000000000000600082015250565b6000612d42600e83612700565b9150612d4d82612d0c565b602082019050919050565b60006020820190508181036000830152612d7181612d35565b9050919050565b7f496e76616c696420646174650000000000000000000000000000000000000000600082015250565b6000612dae600c83612700565b9150612db982612d78565b602082019050919050565b60006020820190508181036000830152612ddd81612da1565b9050919050565b6000612def82611e09565b9150612dfa83611e09565b9250828203905081811115612e1257612e116128aa565b5b92915050565b600081519050919050565b60005b83811015612e41578082015181840152602081019050612e26565b60008484015250505050565b6000612e5882612e18565b612e628185612700565b9350612e72818560208601612e23565b612e7b81612014565b840191505092915050565b60006040820190508181036000830152612ea08185612e4d565b9050612eaf60208301846121f3565b9392505050565b60006020820190508181036000830152612ed08184612e4d565b905092915050565b7f4e487b7100000000000000000000000000000000000000000000000000000000600052605160045260246000fdfea2646970667358221220b587abba761013df20591cda3ee7fafe9b0f89cb55e01d41191761087f3a7c4f64736f6c634300081c0033",
  "linkReferences": {},
  "deployedLinkReferences": {}
}